{
  "address": "0x5FbDB2315678afecb367f032d93F642f64180aa3",
  "abi": [
    {
      "inputs": [],
      "stateMutability": "nonpayable",
      "type": "constructor"
    },
    {
      "inputs": [],
      "name": "SafelockFactory__AlreadyHasSafelock",
      "type": "error"
    },
    {
      "stateMutability": "payable",
      "type": "fallback"
    },
    {
      "inputs": [
        {
          "internalType": "string",
          "name": "safelockOwnerName",
          "type": "string"
        }
      ],
      "name": "createSafelock",
      "outputs": [],
      "stateMutability": "nonpayable",
      "type": "function"
    },
    {
      "inputs": [],
      "name": "getMySafelockAddress",
      "outputs": [
        {
          "internalType": "address",
          "name": "",
          "type": "address"
        }
      ],
      "stateMutability": "view",
      "type": "function"
    },
    {
      "inputs": [],
      "name": "getMySafelockId",
      "outputs": [
        {
          "internalType": "uint256",
          "name": "",
          "type": "uint256"
        }
      ],
      "stateMutability": "view",
      "type": "function"
    },
    {
      "stateMutability": "payable",
      "type": "receive"
    }
  ],
  "transactionHash": "0x11c22341a1741dc9bf5e73e407eaa4b24a4e79c3396df339752bea2867b218af",
  "args": [],
  "numDeployments": 1,
  "solcInputHash": "3cac3f9f4bf6a581d0537a677c93aae7",
  "bytecode": "0x608060405234801561001057600080fd5b5060006001819055506118ce806100286000396000f3fe6080604052600436106200003d5760003560e01c806333fa5e6e146200004d57806370ab2562146200007d578063754d46b814620000ad5762000048565b366200004857600080fd5b600080fd5b3480156200005a57600080fd5b5062000065620000db565b604051620000749190620004b8565b60405180910390f35b3480156200008a57600080fd5b506200009562000126565b604051620000a491906200049b565b60405180910390f35b348015620000ba57600080fd5b50620000d96004803603810190620000d39190620003e7565b620001d6565b005b6000806000803373ffffffffffffffffffffffffffffffffffffffff1673ffffffffffffffffffffffffffffffffffffffff1681526020019081526020016000205490508091505090565b6000806000803373ffffffffffffffffffffffffffffffffffffffff1673ffffffffffffffffffffffffffffffffffffffff16815260200190815260200160002054905060008114156200017f576000915050620001d3565b600260018262000190919062000601565b81548110620001a457620001a362000724565b5b9060005260206000200160009054906101000a900473ffffffffffffffffffffffffffffffffffffffff169150505b90565b60008060003373ffffffffffffffffffffffffffffffffffffffff1673ffffffffffffffffffffffffffffffffffffffff16815260200190815260200160002054146200024f576040517f6f090fcc00000000000000000000000000000000000000000000000000000000815260040160405180910390fd5b6001806000828254620002639190620005a4565b92505081905550600060015433308460405162000280906200035b565b6200028f9493929190620004d5565b604051809103906000f080158015620002ac573d6000803e3d6000fd5b5090506001546000803373ffffffffffffffffffffffffffffffffffffffff1673ffffffffffffffffffffffffffffffffffffffff168152602001908152602001600020819055506002819080600181540180825580915050600190039060005260206000200160009091909190916101000a81548173ffffffffffffffffffffffffffffffffffffffff021916908373ffffffffffffffffffffffffffffffffffffffff1602179055505050565b6110f180620007a883390190565b6000620003806200037a8462000552565b62000529565b9050828152602081018484840111156200039f576200039e62000787565b5b620003ac8482856200067a565b509392505050565b600082601f830112620003cc57620003cb62000782565b5b8135620003de84826020860162000369565b91505092915050565b6000602082840312156200040057620003ff62000791565b5b600082013567ffffffffffffffff8111156200042157620004206200078c565b5b6200042f84828501620003b4565b91505092915050565b62000443816200063c565b82525050565b6000620004568262000588565b62000462818562000593565b93506200047481856020860162000689565b6200047f8162000796565b840191505092915050565b620004958162000670565b82525050565b6000602082019050620004b2600083018462000438565b92915050565b6000602082019050620004cf60008301846200048a565b92915050565b6000608082019050620004ec60008301876200048a565b620004fb602083018662000438565b6200050a604083018562000438565b81810360608301526200051e818462000449565b905095945050505050565b60006200053562000548565b9050620005438282620006bf565b919050565b6000604051905090565b600067ffffffffffffffff82111562000570576200056f62000753565b5b6200057b8262000796565b9050602081019050919050565b600081519050919050565b600082825260208201905092915050565b6000620005b18262000670565b9150620005be8362000670565b9250827fffffffffffffffffffffffffffffffffffffffffffffffffffffffffffffffff03821115620005f657620005f5620006f5565b5b828201905092915050565b60006200060e8262000670565b91506200061b8362000670565b925082821015620006315762000630620006f5565b5b828203905092915050565b6000620006498262000650565b9050919050565b600073ffffffffffffffffffffffffffffffffffffffff82169050919050565b6000819050919050565b82818337600083830152505050565b60005b83811015620006a95780820151818401526020810190506200068c565b83811115620006b9576000848401525b50505050565b620006ca8262000796565b810181811067ffffffffffffffff82111715620006ec57620006eb62000753565b5b80604052505050565b7f4e487b7100000000000000000000000000000000000000000000000000000000600052601160045260246000fd5b7f4e487b7100000000000000000000000000000000000000000000000000000000600052603260045260246000fd5b7f4e487b7100000000000000000000000000000000000000000000000000000000600052604160045260246000fd5b600080fd5b600080fd5b600080fd5b600080fd5b6000601f19601f830116905091905056fe60e06040523480156200001157600080fd5b50604051620010f1380380620010f183398181016040528101906200003791906200022c565b83608081815250508273ffffffffffffffffffffffffffffffffffffffff1660a08173ffffffffffffffffffffffffffffffffffffffff1660601b815250508173ffffffffffffffffffffffffffffffffffffffff1660c08173ffffffffffffffffffffffffffffffffffffffff1660601b815250508060029080519060200190620000c5929190620000d0565b5050505050620004b3565b828054620000de9062000390565b90600052602060002090601f0160209004810192826200010257600085556200014e565b82601f106200011d57805160ff19168380011785556200014e565b828001600101855582156200014e579182015b828111156200014d57825182559160200191906001019062000130565b5b5090506200015d919062000161565b5090565b5b808211156200017c57600081600090555060010162000162565b5090565b6000620001976200019184620002e6565b620002bd565b905082815260208101848484011115620001b657620001b56200045f565b5b620001c38482856200035a565b509392505050565b600081519050620001dc816200047f565b92915050565b600082601f830112620001fa57620001f96200045a565b5b81516200020c84826020860162000180565b91505092915050565b600081519050620002268162000499565b92915050565b6000806000806080858703121562000249576200024862000469565b5b6000620002598782880162000215565b94505060206200026c87828801620001cb565b93505060406200027f87828801620001cb565b925050606085015167ffffffffffffffff811115620002a357620002a262000464565b5b620002b187828801620001e2565b91505092959194509250565b6000620002c9620002dc565b9050620002d78282620003c6565b919050565b6000604051905090565b600067ffffffffffffffff8211156200030457620003036200042b565b5b6200030f826200046e565b9050602081019050919050565b6000620003298262000330565b9050919050565b600073ffffffffffffffffffffffffffffffffffffffff82169050919050565b6000819050919050565b60005b838110156200037a5780820151818401526020810190506200035d565b838111156200038a576000848401525b50505050565b60006002820490506001821680620003a957607f821691505b60208210811415620003c057620003bf620003fc565b5b50919050565b620003d1826200046e565b810181811067ffffffffffffffff82111715620003f357620003f26200042b565b5b80604052505050565b7f4e487b7100000000000000000000000000000000000000000000000000000000600052602260045260246000fd5b7f4e487b7100000000000000000000000000000000000000000000000000000000600052604160045260246000fd5b600080fd5b600080fd5b600080fd5b600080fd5b6000601f19601f8301169050919050565b6200048a816200031c565b81146200049657600080fd5b50565b620004a48162000350565b8114620004b057600080fd5b50565b60805160a05160601c60c05160601c610c07620004ea600039600050506000818161016a01526104f0015260005050610c076000f3fe6080604052600436106100595760003560e01c806312b58349146100685780632e1a7d4d1461009357806344b9fd6e146100af5780638027a6f0146100cb578063cba0222f146100f6578063fae964671461013357610063565b3661006357600080fd5b600080fd5b34801561007457600080fd5b5061007d61015e565b60405161008a91906109a2565b60405180910390f35b6100ad60048036038101906100a89190610800565b610168565b005b6100c960048036038101906100c49190610800565b6104ee565b005b3480156100d757600080fd5b506100e061068d565b6040516100ed9190610980565b60405180910390f35b34801561010257600080fd5b5061011d60048036038101906101189190610800565b61071f565b60405161012a91906109a2565b60405180910390f35b34801561013f57600080fd5b50610148610753565b604051610155919061095e565b60405180910390f35b6000600154905090565b7f000000000000000000000000000000000000000000000000000000000000000073ffffffffffffffffffffffffffffffffffffffff163373ffffffffffffffffffffffffffffffffffffffff16146101ed576040517f69a9092900000000000000000000000000000000000000000000000000000000815260040160405180910390fd5b600080549050811061022b576040517f05fb2b7e00000000000000000000000000000000000000000000000000000000815260040160405180910390fd5b6000818154811061023f5761023e610b75565b5b9060005260206000209060040201600201546000828154811061026557610264610b75565b5b906000526020600020906004020160010154426102829190610a68565b101561032557426000828154811061029d5761029c610b75565b5b906000526020600020906004020160020154600083815481106102c3576102c2610b75565b5b9060005260206000209060040201600101546102df9190610a12565b6102e99190610a68565b6040517f0155714400000000000000000000000000000000000000000000000000000000815260040161031c91906109a2565b60405180910390fd5b6000818154811061033957610338610b75565b5b906000526020600020906004020160030160009054906101000a900460ff161561038f576040517fa5421aa200000000000000000000000000000000000000000000000000000000815260040160405180910390fd5b60008082815481106103a4576103a3610b75565b5b9060005260206000209060040201600001549050600082815481106103cc576103cb610b75565b5b906000526020600020906004020160000154600160008282546103ef9190610a68565b92505081905550600080838154811061040b5761040a610b75565b5b90600052602060002090600402016000018190555060016000838154811061043657610435610b75565b5b906000526020600020906004020160030160006101000a81548160ff0219169083151502179055503373ffffffffffffffffffffffffffffffffffffffff166108fc829081150290604051600060405180830381858888f193505050501580156104a4573d6000803e3d6000fd5b5080823373ffffffffffffffffffffffffffffffffffffffff167f4c442e853d7bfa40a759c763d38f6412bfd91e8d5a18055e769c2b3812acdd2a60405160405180910390a45050565b7f000000000000000000000000000000000000000000000000000000000000000073ffffffffffffffffffffffffffffffffffffffff163373ffffffffffffffffffffffffffffffffffffffff1614610573576040517f69a9092900000000000000000000000000000000000000000000000000000000815260040160405180910390fd5b6000341161058057600080fd5b6000811161058d57600080fd5b60006040518060800160405280348152602001428152602001838152602001600015158152509050600081908060018154018082558091505060019003906000526020600020906004020160009091909190915060008201518160000155602082015181600101556040820151816002015560608201518160030160006101000a81548160ff021916908315150217905550505034600160008282546106339190610a12565b92505081905550343373ffffffffffffffffffffffffffffffffffffffff167f34f10b16434f4cacf97e55775f659cca90f07fce057e43c3f7061ce8d92d9de88460405161068191906109a2565b60405180910390a35050565b60606002805461069c90610ae5565b80601f01602080910402602001604051908101604052809291908181526020018280546106c890610ae5565b80156107155780601f106106ea57610100808354040283529160200191610715565b820191906000526020600020905b8154815290600101906020018083116106f857829003601f168201915b5050505050905090565b6000806000838154811061073657610735610b75565b5b906000526020600020906004020160000154905080915050919050565b60606000805480602002602001604051908101604052809291908181526020016000905b828210156107e257838290600052602060002090600402016040518060800160405290816000820154815260200160018201548152602001600282015481526020016003820160009054906101000a900460ff16151515158152505081526020019060010190610777565b50505050905090565b6000813590506107fa81610bba565b92915050565b60006020828403121561081657610815610ba4565b5b6000610824848285016107eb565b91505092915050565b600061083983836108eb565b60808301905092915050565b6000610850826109cd565b61085a81856109f0565b9350610865836109bd565b8060005b8381101561089657815161087d888261082d565b9750610888836109e3565b925050600181019050610869565b5085935050505092915050565b6108ac81610a9c565b82525050565b60006108bd826109d8565b6108c78185610a01565b93506108d7818560208601610ab2565b6108e081610ba9565b840191505092915050565b6080820160008201516109016000850182610940565b5060208201516109146020850182610940565b5060408201516109276040850182610940565b50606082015161093a60608501826108a3565b50505050565b61094981610aa8565b82525050565b61095881610aa8565b82525050565b600060208201905081810360008301526109788184610845565b905092915050565b6000602082019050818103600083015261099a81846108b2565b905092915050565b60006020820190506109b7600083018461094f565b92915050565b6000819050602082019050919050565b600081519050919050565b600081519050919050565b6000602082019050919050565b600082825260208201905092915050565b600082825260208201905092915050565b6000610a1d82610aa8565b9150610a2883610aa8565b9250827fffffffffffffffffffffffffffffffffffffffffffffffffffffffffffffffff03821115610a5d57610a5c610b17565b5b828201905092915050565b6000610a7382610aa8565b9150610a7e83610aa8565b925082821015610a9157610a90610b17565b5b828203905092915050565b60008115159050919050565b6000819050919050565b60005b83811015610ad0578082015181840152602081019050610ab5565b83811115610adf576000848401525b50505050565b60006002820490506001821680610afd57607f821691505b60208210811415610b1157610b10610b46565b5b50919050565b7f4e487b7100000000000000000000000000000000000000000000000000000000600052601160045260246000fd5b7f4e487b7100000000000000000000000000000000000000000000000000000000600052602260045260246000fd5b7f4e487b7100000000000000000000000000000000000000000000000000000000600052603260045260246000fd5b600080fd5b6000601f19601f8301169050919050565b610bc381610aa8565b8114610bce57600080fd5b5056fea26469706673582212206efd3dc328b40b8d6e68ac62f5ddea4d934343824fddb6bca68a485bb93e149d64736f6c63430008070033a2646970667358221220ae2c85fad3ce11be126de9cc1f62a3dcfce79ab9d6b716ec12cffc10630330a764736f6c63430008070033",
  "devdoc": {
    "kind": "dev",
    "methods": {},
    "version": 1
  },
  "userdoc": {
    "kind": "user",
    "methods": {},
    "version": 1
  },
  "storageLayout": {
    "storage": [
      {
        "astId": 309,
        "contract": "contracts/SafelockFactory.sol:SafelockFactory",
        "label": "s_hasSafelock",
        "offset": 0,
        "slot": "0",
        "type": "t_mapping(t_address,t_uint256)"
      },
      {
        "astId": 311,
        "contract": "contracts/SafelockFactory.sol:SafelockFactory",
        "label": "s_latestSafelockId",
        "offset": 0,
        "slot": "1",
        "type": "t_uint256"
      },
      {
        "astId": 315,
        "contract": "contracts/SafelockFactory.sol:SafelockFactory",
        "label": "s_safelocks",
        "offset": 0,
        "slot": "2",
        "type": "t_array(t_contract(Safelock)301)dyn_storage"
      }
    ],
    "types": {
      "t_address": {
        "encoding": "inplace",
        "label": "address",
        "numberOfBytes": "20"
      },
      "t_array(t_contract(Safelock)301)dyn_storage": {
        "base": "t_contract(Safelock)301",
        "encoding": "dynamic_array",
        "label": "contract Safelock[]",
        "numberOfBytes": "32"
      },
      "t_contract(Safelock)301": {
        "encoding": "inplace",
        "label": "contract Safelock",
        "numberOfBytes": "20"
      },
      "t_mapping(t_address,t_uint256)": {
        "encoding": "mapping",
        "key": "t_address",
        "label": "mapping(address => uint256)",
        "numberOfBytes": "32",
        "value": "t_uint256"
      },
      "t_uint256": {
        "encoding": "inplace",
        "label": "uint256",
        "numberOfBytes": "32"
      }
    }
  }
}