{
  "address": "0x5FbDB2315678afecb367f032d93F642f64180aa3",
  "abi": [
    {
      "inputs": [],
      "stateMutability": "nonpayable",
      "type": "constructor"
    },
    {
      "inputs": [],
      "name": "SafelockFactory__AlreadyHasSafelock",
      "type": "error"
    },
    {
      "inputs": [
        {
          "internalType": "string",
          "name": "safelockOwnerName",
          "type": "string"
        }
      ],
      "name": "createSafelock",
      "outputs": [],
      "stateMutability": "nonpayable",
      "type": "function"
    },
    {
      "inputs": [],
      "name": "getMySafelockAddress",
      "outputs": [
        {
          "internalType": "address",
          "name": "",
          "type": "address"
        }
      ],
      "stateMutability": "view",
      "type": "function"
    },
    {
      "inputs": [],
      "name": "getMySafelockId",
      "outputs": [
        {
          "internalType": "uint256",
          "name": "",
          "type": "uint256"
        }
      ],
      "stateMutability": "view",
      "type": "function"
    }
  ],
  "transactionHash": "0x614f791ab059621a9556c1b24b2b46186e50e880da3bef937e80aba2dac01a65",
  "args": [],
  "numDeployments": 1,
  "solcInputHash": "21114b8a007333a94f992a6d00dc9cff",
  "bytecode": "0x608060405234801561001057600080fd5b506000600181905550611894806100286000396000f3fe60806040523480156200001157600080fd5b5060043610620000465760003560e01c806333fa5e6e146200004b57806370ab2562146200006d578063754d46b8146200008f575b600080fd5b62000055620000af565b6040516200006491906200048c565b60405180910390f35b62000077620000fa565b6040516200008691906200046f565b60405180910390f35b620000ad6004803603810190620000a79190620003bb565b620001aa565b005b6000806000803373ffffffffffffffffffffffffffffffffffffffff1673ffffffffffffffffffffffffffffffffffffffff1681526020019081526020016000205490508091505090565b6000806000803373ffffffffffffffffffffffffffffffffffffffff1673ffffffffffffffffffffffffffffffffffffffff168152602001908152602001600020549050600081141562000153576000915050620001a7565b6002600182620001649190620005d5565b81548110620001785762000177620006f8565b5b9060005260206000200160009054906101000a900473ffffffffffffffffffffffffffffffffffffffff169150505b90565b60008060003373ffffffffffffffffffffffffffffffffffffffff1673ffffffffffffffffffffffffffffffffffffffff168152602001908152602001600020541462000223576040517f6f090fcc00000000000000000000000000000000000000000000000000000000815260040160405180910390fd5b600180600082825462000237919062000578565b92505081905550600060015433308460405162000254906200032f565b620002639493929190620004a9565b604051809103906000f08015801562000280573d6000803e3d6000fd5b5090506001546000803373ffffffffffffffffffffffffffffffffffffffff1673ffffffffffffffffffffffffffffffffffffffff168152602001908152602001600020819055506002819080600181540180825580915050600190039060005260206000200160009091909190916101000a81548173ffffffffffffffffffffffffffffffffffffffff021916908373ffffffffffffffffffffffffffffffffffffffff1602179055505050565b6110e3806200077c83390190565b6000620003546200034e8462000526565b620004fd565b9050828152602081018484840111156200037357620003726200075b565b5b620003808482856200064e565b509392505050565b600082601f830112620003a0576200039f62000756565b5b8135620003b28482602086016200033d565b91505092915050565b600060208284031215620003d457620003d362000765565b5b600082013567ffffffffffffffff811115620003f557620003f462000760565b5b620004038482850162000388565b91505092915050565b620004178162000610565b82525050565b60006200042a826200055c565b62000436818562000567565b9350620004488185602086016200065d565b62000453816200076a565b840191505092915050565b620004698162000644565b82525050565b60006020820190506200048660008301846200040c565b92915050565b6000602082019050620004a360008301846200045e565b92915050565b6000608082019050620004c060008301876200045e565b620004cf60208301866200040c565b620004de60408301856200040c565b8181036060830152620004f281846200041d565b905095945050505050565b6000620005096200051c565b905062000517828262000693565b919050565b6000604051905090565b600067ffffffffffffffff82111562000544576200054362000727565b5b6200054f826200076a565b9050602081019050919050565b600081519050919050565b600082825260208201905092915050565b6000620005858262000644565b9150620005928362000644565b9250827fffffffffffffffffffffffffffffffffffffffffffffffffffffffffffffffff03821115620005ca57620005c9620006c9565b5b828201905092915050565b6000620005e28262000644565b9150620005ef8362000644565b925082821015620006055762000604620006c9565b5b828203905092915050565b60006200061d8262000624565b9050919050565b600073ffffffffffffffffffffffffffffffffffffffff82169050919050565b6000819050919050565b82818337600083830152505050565b60005b838110156200067d57808201518184015260208101905062000660565b838111156200068d576000848401525b50505050565b6200069e826200076a565b810181811067ffffffffffffffff82111715620006c057620006bf62000727565b5b80604052505050565b7f4e487b7100000000000000000000000000000000000000000000000000000000600052601160045260246000fd5b7f4e487b7100000000000000000000000000000000000000000000000000000000600052603260045260246000fd5b7f4e487b7100000000000000000000000000000000000000000000000000000000600052604160045260246000fd5b600080fd5b600080fd5b600080fd5b600080fd5b6000601f19601f830116905091905056fe60e06040523480156200001157600080fd5b50604051620010e3380380620010e383398181016040528101906200003791906200022c565b83608081815250508273ffffffffffffffffffffffffffffffffffffffff1660a08173ffffffffffffffffffffffffffffffffffffffff1660601b815250508173ffffffffffffffffffffffffffffffffffffffff1660c08173ffffffffffffffffffffffffffffffffffffffff1660601b815250508060029080519060200190620000c5929190620000d0565b5050505050620004b3565b828054620000de9062000390565b90600052602060002090601f0160209004810192826200010257600085556200014e565b82601f106200011d57805160ff19168380011785556200014e565b828001600101855582156200014e579182015b828111156200014d57825182559160200191906001019062000130565b5b5090506200015d919062000161565b5090565b5b808211156200017c57600081600090555060010162000162565b5090565b6000620001976200019184620002e6565b620002bd565b905082815260208101848484011115620001b657620001b56200045f565b5b620001c38482856200035a565b509392505050565b600081519050620001dc816200047f565b92915050565b600082601f830112620001fa57620001f96200045a565b5b81516200020c84826020860162000180565b91505092915050565b600081519050620002268162000499565b92915050565b6000806000806080858703121562000249576200024862000469565b5b6000620002598782880162000215565b94505060206200026c87828801620001cb565b93505060406200027f87828801620001cb565b925050606085015167ffffffffffffffff811115620002a357620002a262000464565b5b620002b187828801620001e2565b91505092959194509250565b6000620002c9620002dc565b9050620002d78282620003c6565b919050565b6000604051905090565b600067ffffffffffffffff8211156200030457620003036200042b565b5b6200030f826200046e565b9050602081019050919050565b6000620003298262000330565b9050919050565b600073ffffffffffffffffffffffffffffffffffffffff82169050919050565b6000819050919050565b60005b838110156200037a5780820151818401526020810190506200035d565b838111156200038a576000848401525b50505050565b60006002820490506001821680620003a957607f821691505b60208210811415620003c057620003bf620003fc565b5b50919050565b620003d1826200046e565b810181811067ffffffffffffffff82111715620003f357620003f26200042b565b5b80604052505050565b7f4e487b7100000000000000000000000000000000000000000000000000000000600052602260045260246000fd5b7f4e487b7100000000000000000000000000000000000000000000000000000000600052604160045260246000fd5b600080fd5b600080fd5b600080fd5b600080fd5b6000601f19601f8301169050919050565b6200048a816200031c565b81146200049657600080fd5b50565b620004a48162000350565b8114620004b057600080fd5b50565b60805160a05160601c60c05160601c610bf9620004ea600039600050506000818161015c01526104e2015260005050610bf96000f3fe6080604052600436106100555760003560e01c806312b583491461005a5780632e1a7d4d1461008557806344b9fd6e146100a15780638027a6f0146100bd578063cba0222f146100e8578063fae9646714610125575b600080fd5b34801561006657600080fd5b5061006f610150565b60405161007c9190610994565b60405180910390f35b61009f600480360381019061009a91906107f2565b61015a565b005b6100bb60048036038101906100b691906107f2565b6104e0565b005b3480156100c957600080fd5b506100d261067f565b6040516100df9190610972565b60405180910390f35b3480156100f457600080fd5b5061010f600480360381019061010a91906107f2565b610711565b60405161011c9190610994565b60405180910390f35b34801561013157600080fd5b5061013a610745565b6040516101479190610950565b60405180910390f35b6000600154905090565b7f000000000000000000000000000000000000000000000000000000000000000073ffffffffffffffffffffffffffffffffffffffff163373ffffffffffffffffffffffffffffffffffffffff16146101df576040517f69a9092900000000000000000000000000000000000000000000000000000000815260040160405180910390fd5b600080549050811061021d576040517f05fb2b7e00000000000000000000000000000000000000000000000000000000815260040160405180910390fd5b6000818154811061023157610230610b67565b5b9060005260206000209060040201600201546000828154811061025757610256610b67565b5b906000526020600020906004020160010154426102749190610a5a565b101561031757426000828154811061028f5761028e610b67565b5b906000526020600020906004020160020154600083815481106102b5576102b4610b67565b5b9060005260206000209060040201600101546102d19190610a04565b6102db9190610a5a565b6040517f0155714400000000000000000000000000000000000000000000000000000000815260040161030e9190610994565b60405180910390fd5b6000818154811061032b5761032a610b67565b5b906000526020600020906004020160030160009054906101000a900460ff1615610381576040517fa5421aa200000000000000000000000000000000000000000000000000000000815260040160405180910390fd5b600080828154811061039657610395610b67565b5b9060005260206000209060040201600001549050600082815481106103be576103bd610b67565b5b906000526020600020906004020160000154600160008282546103e19190610a5a565b9250508190555060008083815481106103fd576103fc610b67565b5b90600052602060002090600402016000018190555060016000838154811061042857610427610b67565b5b906000526020600020906004020160030160006101000a81548160ff0219169083151502179055503373ffffffffffffffffffffffffffffffffffffffff166108fc829081150290604051600060405180830381858888f19350505050158015610496573d6000803e3d6000fd5b5080823373ffffffffffffffffffffffffffffffffffffffff167f4c442e853d7bfa40a759c763d38f6412bfd91e8d5a18055e769c2b3812acdd2a60405160405180910390a45050565b7f000000000000000000000000000000000000000000000000000000000000000073ffffffffffffffffffffffffffffffffffffffff163373ffffffffffffffffffffffffffffffffffffffff1614610565576040517f69a9092900000000000000000000000000000000000000000000000000000000815260040160405180910390fd5b6000341161057257600080fd5b6000811161057f57600080fd5b60006040518060800160405280348152602001428152602001838152602001600015158152509050600081908060018154018082558091505060019003906000526020600020906004020160009091909190915060008201518160000155602082015181600101556040820151816002015560608201518160030160006101000a81548160ff021916908315150217905550505034600160008282546106259190610a04565b92505081905550343373ffffffffffffffffffffffffffffffffffffffff167f34f10b16434f4cacf97e55775f659cca90f07fce057e43c3f7061ce8d92d9de8846040516106739190610994565b60405180910390a35050565b60606002805461068e90610ad7565b80601f01602080910402602001604051908101604052809291908181526020018280546106ba90610ad7565b80156107075780601f106106dc57610100808354040283529160200191610707565b820191906000526020600020905b8154815290600101906020018083116106ea57829003601f168201915b5050505050905090565b6000806000838154811061072857610727610b67565b5b906000526020600020906004020160000154905080915050919050565b60606000805480602002602001604051908101604052809291908181526020016000905b828210156107d457838290600052602060002090600402016040518060800160405290816000820154815260200160018201548152602001600282015481526020016003820160009054906101000a900460ff16151515158152505081526020019060010190610769565b50505050905090565b6000813590506107ec81610bac565b92915050565b60006020828403121561080857610807610b96565b5b6000610816848285016107dd565b91505092915050565b600061082b83836108dd565b60808301905092915050565b6000610842826109bf565b61084c81856109e2565b9350610857836109af565b8060005b8381101561088857815161086f888261081f565b975061087a836109d5565b92505060018101905061085b565b5085935050505092915050565b61089e81610a8e565b82525050565b60006108af826109ca565b6108b981856109f3565b93506108c9818560208601610aa4565b6108d281610b9b565b840191505092915050565b6080820160008201516108f36000850182610932565b5060208201516109066020850182610932565b5060408201516109196040850182610932565b50606082015161092c6060850182610895565b50505050565b61093b81610a9a565b82525050565b61094a81610a9a565b82525050565b6000602082019050818103600083015261096a8184610837565b905092915050565b6000602082019050818103600083015261098c81846108a4565b905092915050565b60006020820190506109a96000830184610941565b92915050565b6000819050602082019050919050565b600081519050919050565b600081519050919050565b6000602082019050919050565b600082825260208201905092915050565b600082825260208201905092915050565b6000610a0f82610a9a565b9150610a1a83610a9a565b9250827fffffffffffffffffffffffffffffffffffffffffffffffffffffffffffffffff03821115610a4f57610a4e610b09565b5b828201905092915050565b6000610a6582610a9a565b9150610a7083610a9a565b925082821015610a8357610a82610b09565b5b828203905092915050565b60008115159050919050565b6000819050919050565b60005b83811015610ac2578082015181840152602081019050610aa7565b83811115610ad1576000848401525b50505050565b60006002820490506001821680610aef57607f821691505b60208210811415610b0357610b02610b38565b5b50919050565b7f4e487b7100000000000000000000000000000000000000000000000000000000600052601160045260246000fd5b7f4e487b7100000000000000000000000000000000000000000000000000000000600052602260045260246000fd5b7f4e487b7100000000000000000000000000000000000000000000000000000000600052603260045260246000fd5b600080fd5b6000601f19601f8301169050919050565b610bb581610a9a565b8114610bc057600080fd5b5056fea2646970667358221220bb07c2b124edb901b8f8e4666e2f990e9555264fcd87ba31923a1e24f7576da364736f6c63430008070033a2646970667358221220bb954189d978f141445970ec2392e20aef3406ddb106e5f3e994a49830891adc64736f6c63430008070033",
  "devdoc": {
    "kind": "dev",
    "methods": {},
    "version": 1
  },
  "userdoc": {
    "kind": "user",
    "methods": {},
    "version": 1
  },
  "storageLayout": {
    "storage": [
      {
        "astId": 295,
        "contract": "contracts/SafelockFactory.sol:SafelockFactory",
        "label": "s_hasSafelock",
        "offset": 0,
        "slot": "0",
        "type": "t_mapping(t_address,t_uint256)"
      },
      {
        "astId": 297,
        "contract": "contracts/SafelockFactory.sol:SafelockFactory",
        "label": "s_latestSafelockId",
        "offset": 0,
        "slot": "1",
        "type": "t_uint256"
      },
      {
        "astId": 301,
        "contract": "contracts/SafelockFactory.sol:SafelockFactory",
        "label": "s_safelocks",
        "offset": 0,
        "slot": "2",
        "type": "t_array(t_contract(Safelock)287)dyn_storage"
      }
    ],
    "types": {
      "t_address": {
        "encoding": "inplace",
        "label": "address",
        "numberOfBytes": "20"
      },
      "t_array(t_contract(Safelock)287)dyn_storage": {
        "base": "t_contract(Safelock)287",
        "encoding": "dynamic_array",
        "label": "contract Safelock[]",
        "numberOfBytes": "32"
      },
      "t_contract(Safelock)287": {
        "encoding": "inplace",
        "label": "contract Safelock",
        "numberOfBytes": "20"
      },
      "t_mapping(t_address,t_uint256)": {
        "encoding": "mapping",
        "key": "t_address",
        "label": "mapping(address => uint256)",
        "numberOfBytes": "32",
        "value": "t_uint256"
      },
      "t_uint256": {
        "encoding": "inplace",
        "label": "uint256",
        "numberOfBytes": "32"
      }
    }
  }
}