{
  "address": "0x46bC76dE6058a32D1cc840a69BD755E4456cA8f6",
  "abi": [
    {
      "inputs": [],
      "stateMutability": "nonpayable",
      "type": "constructor"
    },
    {
      "inputs": [],
      "name": "SafelockFactory__AlreadyHasSafelock",
      "type": "error"
    },
    {
      "stateMutability": "payable",
      "type": "fallback"
    },
    {
      "inputs": [
        {
          "internalType": "string",
          "name": "safelockOwnerName",
          "type": "string"
        }
      ],
      "name": "createSafelock",
      "outputs": [],
      "stateMutability": "nonpayable",
      "type": "function"
    },
    {
      "inputs": [],
      "name": "getMySafelockAddress",
      "outputs": [
        {
          "internalType": "address",
          "name": "",
          "type": "address"
        }
      ],
      "stateMutability": "view",
      "type": "function"
    },
    {
      "inputs": [],
      "name": "getMySafelockId",
      "outputs": [
        {
          "internalType": "uint256",
          "name": "",
          "type": "uint256"
        }
      ],
      "stateMutability": "view",
      "type": "function"
    },
    {
      "inputs": [
        {
          "internalType": "uint256",
          "name": "id",
          "type": "uint256"
        }
      ],
      "name": "getSafelockAddressById",
      "outputs": [
        {
          "internalType": "address",
          "name": "",
          "type": "address"
        }
      ],
      "stateMutability": "view",
      "type": "function"
    },
    {
      "inputs": [
        {
          "internalType": "address",
          "name": "safelockAddress",
          "type": "address"
        }
      ],
      "name": "getSafelockIdByAddress",
      "outputs": [
        {
          "internalType": "uint256",
          "name": "",
          "type": "uint256"
        }
      ],
      "stateMutability": "view",
      "type": "function"
    },
    {
      "stateMutability": "payable",
      "type": "receive"
    }
  ],
  "transactionHash": "0x864258b6fb335961452f69e8628588905cdfdf7e6149ba3169aff60ef043a50c",
  "args": [],
  "numDeployments": 1,
  "solcInputHash": "53ff713d6a8d781dfbd13141a53c117b",
  "bytecode": "0x608060405234801561001057600080fd5b506000600281905550611d90806100286000396000f3fe608060405260043610620000555760003560e01c806333fa5e6e14620000655780635a4ef894146200009557806370ab256214620000d9578063754d46b81462000109578063b93b8fc314620001375762000060565b366200006057600080fd5b600080fd5b3480156200007257600080fd5b506200007d6200017b565b6040516200008c9190620006d8565b60405180910390f35b348015620000a257600080fd5b50620000c16004803603810190620000bb9190620005a3565b620001c6565b604051620000d09190620006d8565b60405180910390f35b348015620000e657600080fd5b50620000f16200020f565b604051620001009190620006bb565b60405180910390f35b3480156200011657600080fd5b506200013560048036038101906200012f9190620005d5565b620002bf565b005b3480156200014457600080fd5b506200016360048036038101906200015d919062000626565b6200048b565b604051620001729190620006bb565b60405180910390f35b6000806000803373ffffffffffffffffffffffffffffffffffffffff1673ffffffffffffffffffffffffffffffffffffffff1681526020019081526020016000205490508091505090565b6000600160008373ffffffffffffffffffffffffffffffffffffffff1673ffffffffffffffffffffffffffffffffffffffff168152602001908152602001600020549050919050565b6000806000803373ffffffffffffffffffffffffffffffffffffffff1673ffffffffffffffffffffffffffffffffffffffff168152602001908152602001600020549050600081141562000268576000915050620002bc565b600360018262000279919062000821565b815481106200028d576200028c62000944565b5b9060005260206000200160009054906101000a900473ffffffffffffffffffffffffffffffffffffffff169150505b90565b60008060003373ffffffffffffffffffffffffffffffffffffffff1673ffffffffffffffffffffffffffffffffffffffff168152602001908152602001600020541462000338576040517f6f090fcc00000000000000000000000000000000000000000000000000000000815260040160405180910390fd5b6001600260008282546200034d9190620007c4565b9250508190555060006002543330846040516200036a90620004e9565b620003799493929190620006f5565b604051809103906000f08015801562000396573d6000803e3d6000fd5b5090506002546000803373ffffffffffffffffffffffffffffffffffffffff1673ffffffffffffffffffffffffffffffffffffffff16815260200190815260200160002081905550600254600160008373ffffffffffffffffffffffffffffffffffffffff1673ffffffffffffffffffffffffffffffffffffffff168152602001908152602001600020819055506003819080600181540180825580915050600190039060005260206000200160009091909190916101000a81548173ffffffffffffffffffffffffffffffffffffffff021916908373ffffffffffffffffffffffffffffffffffffffff1602179055505050565b60008060036001846200049f919062000821565b81548110620004b357620004b262000944565b5b9060005260206000200160009054906101000a900473ffffffffffffffffffffffffffffffffffffffff16905080915050919050565b61135f80620009fc83390190565b60006200050e620005088462000772565b62000749565b9050828152602081018484840111156200052d576200052c620009a7565b5b6200053a8482856200089a565b509392505050565b6000813590506200055381620009c7565b92915050565b600082601f830112620005715762000570620009a2565b5b813562000583848260208601620004f7565b91505092915050565b6000813590506200059d81620009e1565b92915050565b600060208284031215620005bc57620005bb620009b1565b5b6000620005cc8482850162000542565b91505092915050565b600060208284031215620005ee57620005ed620009b1565b5b600082013567ffffffffffffffff8111156200060f576200060e620009ac565b5b6200061d8482850162000559565b91505092915050565b6000602082840312156200063f576200063e620009b1565b5b60006200064f848285016200058c565b91505092915050565b62000663816200085c565b82525050565b60006200067682620007a8565b620006828185620007b3565b935062000694818560208601620008a9565b6200069f81620009b6565b840191505092915050565b620006b58162000890565b82525050565b6000602082019050620006d2600083018462000658565b92915050565b6000602082019050620006ef6000830184620006aa565b92915050565b60006080820190506200070c6000830187620006aa565b6200071b602083018662000658565b6200072a604083018562000658565b81810360608301526200073e818462000669565b905095945050505050565b60006200075562000768565b9050620007638282620008df565b919050565b6000604051905090565b600067ffffffffffffffff82111562000790576200078f62000973565b5b6200079b82620009b6565b9050602081019050919050565b600081519050919050565b600082825260208201905092915050565b6000620007d18262000890565b9150620007de8362000890565b9250827fffffffffffffffffffffffffffffffffffffffffffffffffffffffffffffffff0382111562000816576200081562000915565b5b828201905092915050565b60006200082e8262000890565b91506200083b8362000890565b92508282101562000851576200085062000915565b5b828203905092915050565b6000620008698262000870565b9050919050565b600073ffffffffffffffffffffffffffffffffffffffff82169050919050565b6000819050919050565b82818337600083830152505050565b60005b83811015620008c9578082015181840152602081019050620008ac565b83811115620008d9576000848401525b50505050565b620008ea82620009b6565b810181811067ffffffffffffffff821117156200090c576200090b62000973565b5b80604052505050565b7f4e487b7100000000000000000000000000000000000000000000000000000000600052601160045260246000fd5b7f4e487b7100000000000000000000000000000000000000000000000000000000600052603260045260246000fd5b7f4e487b7100000000000000000000000000000000000000000000000000000000600052604160045260246000fd5b600080fd5b600080fd5b600080fd5b600080fd5b6000601f19601f8301169050919050565b620009d2816200085c565b8114620009de57600080fd5b50565b620009ec8162000890565b8114620009f857600080fd5b5056fe60e06040523480156200001157600080fd5b506040516200135f3803806200135f83398181016040528101906200003791906200022c565b83608081815250508273ffffffffffffffffffffffffffffffffffffffff1660a08173ffffffffffffffffffffffffffffffffffffffff1660601b815250508173ffffffffffffffffffffffffffffffffffffffff1660c08173ffffffffffffffffffffffffffffffffffffffff1660601b815250508060029080519060200190620000c5929190620000d0565b5050505050620004b3565b828054620000de9062000390565b90600052602060002090601f0160209004810192826200010257600085556200014e565b82601f106200011d57805160ff19168380011785556200014e565b828001600101855582156200014e579182015b828111156200014d57825182559160200191906001019062000130565b5b5090506200015d919062000161565b5090565b5b808211156200017c57600081600090555060010162000162565b5090565b6000620001976200019184620002e6565b620002bd565b905082815260208101848484011115620001b657620001b56200045f565b5b620001c38482856200035a565b509392505050565b600081519050620001dc816200047f565b92915050565b600082601f830112620001fa57620001f96200045a565b5b81516200020c84826020860162000180565b91505092915050565b600081519050620002268162000499565b92915050565b6000806000806080858703121562000249576200024862000469565b5b6000620002598782880162000215565b94505060206200026c87828801620001cb565b93505060406200027f87828801620001cb565b925050606085015167ffffffffffffffff811115620002a357620002a262000464565b5b620002b187828801620001e2565b91505092959194509250565b6000620002c9620002dc565b9050620002d78282620003c6565b919050565b6000604051905090565b600067ffffffffffffffff8211156200030457620003036200042b565b5b6200030f826200046e565b9050602081019050919050565b6000620003298262000330565b9050919050565b600073ffffffffffffffffffffffffffffffffffffffff82169050919050565b6000819050919050565b60005b838110156200037a5780820151818401526020810190506200035d565b838111156200038a576000848401525b50505050565b60006002820490506001821680620003a957607f821691505b60208210811415620003c057620003bf620003fc565b5b50919050565b620003d1826200046e565b810181811067ffffffffffffffff82111715620003f357620003f26200042b565b5b80604052505050565b7f4e487b7100000000000000000000000000000000000000000000000000000000600052602260045260246000fd5b7f4e487b7100000000000000000000000000000000000000000000000000000000600052604160045260246000fd5b600080fd5b600080fd5b600080fd5b600080fd5b6000601f19601f8301169050919050565b6200048a816200031c565b81146200049657600080fd5b50565b620004a48162000350565b8114620004b057600080fd5b50565b60805160a05160601c60c05160601c610e6e620004f160003960005050600081816101ee0152818161058d0152610645015260005050610e6e6000f3fe6080604052600436106100745760003560e01c80638027a6f01161004e5780638027a6f0146100f55780638835939b14610120578063cba0222f1461013c578063fae96467146101795761007e565b806312b58349146100835780632e1a7d4d146100ae5780636239a313146100ca5761007e565b3661007e57600080fd5b600080fd5b34801561008f57600080fd5b506100986101a4565b6040516100a59190610bc0565b60405180910390f35b6100c860048036038101906100c39190610992565b6101ae565b005b3480156100d657600080fd5b506100df610589565b6040516100ec9190610b61565b60405180910390f35b34801561010157600080fd5b5061010a6105b1565b6040516101179190610b9e565b60405180910390f35b61013a600480360381019061013591906109bf565b610643565b005b34801561014857600080fd5b50610163600480360381019061015e9190610992565b610846565b6040516101709190610bc0565b60405180910390f35b34801561018557600080fd5b5061018e61087a565b60405161019b9190610b7c565b60405180910390f35b6000600154905090565b60008054905081106101ec576040517f05fb2b7e00000000000000000000000000000000000000000000000000000000815260040160405180910390fd5b7f000000000000000000000000000000000000000000000000000000000000000073ffffffffffffffffffffffffffffffffffffffff163373ffffffffffffffffffffffffffffffffffffffff16141580156102b957506000818154811061025757610256610dc5565b5b906000526020600020906004020160030160009054906101000a900473ffffffffffffffffffffffffffffffffffffffff1673ffffffffffffffffffffffffffffffffffffffff163373ffffffffffffffffffffffffffffffffffffffff1614155b156102f0576040517f69a9092900000000000000000000000000000000000000000000000000000000815260040160405180910390fd5b6000818154811061030457610303610dc5565b5b9060005260206000209060040201600201546000828154811061032a57610329610dc5565b5b906000526020600020906004020160010154426103479190610c86565b10156103ea57426000828154811061036257610361610dc5565b5b9060005260206000209060040201600201546000838154811061038857610387610dc5565b5b9060005260206000209060040201600101546103a49190610c30565b6103ae9190610c86565b6040517f015571440000000000000000000000000000000000000000000000000000000081526004016103e19190610bc0565b60405180910390fd5b600081815481106103fe576103fd610dc5565b5b906000526020600020906004020160030160149054906101000a900460ff1615610454576040517fa5421aa200000000000000000000000000000000000000000000000000000000815260040160405180910390fd5b600080828154811061046957610468610dc5565b5b90600052602060002090600402016000015490506000828154811061049157610490610dc5565b5b906000526020600020906004020160000154600160008282546104b49190610c86565b925050819055506001600083815481106104d1576104d0610dc5565b5b906000526020600020906004020160030160146101000a81548160ff0219169083151502179055503373ffffffffffffffffffffffffffffffffffffffff166108fc829081150290604051600060405180830381858888f1935050505015801561053f573d6000803e3d6000fd5b5080823373ffffffffffffffffffffffffffffffffffffffff167f4c442e853d7bfa40a759c763d38f6412bfd91e8d5a18055e769c2b3812acdd2a60405160405180910390a45050565b60007f0000000000000000000000000000000000000000000000000000000000000000905090565b6060600280546105c090610d35565b80601f01602080910402602001604051908101604052809291908181526020018280546105ec90610d35565b80156106395780601f1061060e57610100808354040283529160200191610639565b820191906000526020600020905b81548152906001019060200180831161061c57829003601f168201915b5050505050905090565b7f000000000000000000000000000000000000000000000000000000000000000073ffffffffffffffffffffffffffffffffffffffff163373ffffffffffffffffffffffffffffffffffffffff16146106c8576040517f69a9092900000000000000000000000000000000000000000000000000000000815260040160405180910390fd5b600034116106d557600080fd5b600082116106e257600080fd5b60006040518060a001604052803481526020014281526020018481526020018373ffffffffffffffffffffffffffffffffffffffff168152602001600015158152509050600081908060018154018082558091505060019003906000526020600020906004020160009091909190915060008201518160000155602082015181600101556040820151816002015560608201518160030160006101000a81548173ffffffffffffffffffffffffffffffffffffffff021916908373ffffffffffffffffffffffffffffffffffffffff16021790555060808201518160030160146101000a81548160ff021916908315150217905550505034600160008282546107eb9190610c30565b92505081905550343373ffffffffffffffffffffffffffffffffffffffff167f34f10b16434f4cacf97e55775f659cca90f07fce057e43c3f7061ce8d92d9de8856040516108399190610bc0565b60405180910390a3505050565b6000806000838154811061085d5761085c610dc5565b5b906000526020600020906004020160000154905080915050919050565b60606000805480602002602001604051908101604052809291908181526020016000905b8282101561095f57838290600052602060002090600402016040518060a00160405290816000820154815260200160018201548152602001600282015481526020016003820160009054906101000a900473ffffffffffffffffffffffffffffffffffffffff1673ffffffffffffffffffffffffffffffffffffffff1673ffffffffffffffffffffffffffffffffffffffff1681526020016003820160149054906101000a900460ff1615151515815250508152602001906001019061089e565b50505050905090565b60008135905061097781610e0a565b92915050565b60008135905061098c81610e21565b92915050565b6000602082840312156109a8576109a7610df4565b5b60006109b68482850161097d565b91505092915050565b600080604083850312156109d6576109d5610df4565b5b60006109e48582860161097d565b92505060206109f585828601610968565b9150509250929050565b6000610a0b8383610adb565b60a08301905092915050565b610a2081610cba565b82525050565b610a2f81610cba565b82525050565b6000610a4082610beb565b610a4a8185610c0e565b9350610a5583610bdb565b8060005b83811015610a86578151610a6d88826109ff565b9750610a7883610c01565b925050600181019050610a59565b5085935050505092915050565b610a9c81610ccc565b82525050565b6000610aad82610bf6565b610ab78185610c1f565b9350610ac7818560208601610d02565b610ad081610df9565b840191505092915050565b60a082016000820151610af16000850182610b43565b506020820151610b046020850182610b43565b506040820151610b176040850182610b43565b506060820151610b2a6060850182610a17565b506080820151610b3d6080850182610a93565b50505050565b610b4c81610cf8565b82525050565b610b5b81610cf8565b82525050565b6000602082019050610b766000830184610a26565b92915050565b60006020820190508181036000830152610b968184610a35565b905092915050565b60006020820190508181036000830152610bb88184610aa2565b905092915050565b6000602082019050610bd56000830184610b52565b92915050565b6000819050602082019050919050565b600081519050919050565b600081519050919050565b6000602082019050919050565b600082825260208201905092915050565b600082825260208201905092915050565b6000610c3b82610cf8565b9150610c4683610cf8565b9250827fffffffffffffffffffffffffffffffffffffffffffffffffffffffffffffffff03821115610c7b57610c7a610d67565b5b828201905092915050565b6000610c9182610cf8565b9150610c9c83610cf8565b925082821015610caf57610cae610d67565b5b828203905092915050565b6000610cc582610cd8565b9050919050565b60008115159050919050565b600073ffffffffffffffffffffffffffffffffffffffff82169050919050565b6000819050919050565b60005b83811015610d20578082015181840152602081019050610d05565b83811115610d2f576000848401525b50505050565b60006002820490506001821680610d4d57607f821691505b60208210811415610d6157610d60610d96565b5b50919050565b7f4e487b7100000000000000000000000000000000000000000000000000000000600052601160045260246000fd5b7f4e487b7100000000000000000000000000000000000000000000000000000000600052602260045260246000fd5b7f4e487b7100000000000000000000000000000000000000000000000000000000600052603260045260246000fd5b600080fd5b6000601f19601f8301169050919050565b610e1381610cba565b8114610e1e57600080fd5b50565b610e2a81610cf8565b8114610e3557600080fd5b5056fea26469706673582212206edf7b5ab67110821e64239b8fd12c1662e26f308bb00db977dac3042523a36164736f6c63430008070033a2646970667358221220c659e1cdb407eca79e57b35e4f27c95f962d0dde5abdc9b3198b00d0f591773264736f6c63430008070033",
  "devdoc": {
    "kind": "dev",
    "methods": {},
    "version": 1
  },
  "userdoc": {
    "kind": "user",
    "methods": {},
    "version": 1
  },
  "storageLayout": {
    "storage": [
      {
        "astId": 332,
        "contract": "contracts/SafelockFactory.sol:SafelockFactory",
        "label": "s_hasSafelock",
        "offset": 0,
        "slot": "0",
        "type": "t_mapping(t_address,t_uint256)"
      },
      {
        "astId": 336,
        "contract": "contracts/SafelockFactory.sol:SafelockFactory",
        "label": "s_safelockToId",
        "offset": 0,
        "slot": "1",
        "type": "t_mapping(t_address,t_uint256)"
      },
      {
        "astId": 338,
        "contract": "contracts/SafelockFactory.sol:SafelockFactory",
        "label": "s_latestSafelockId",
        "offset": 0,
        "slot": "2",
        "type": "t_uint256"
      },
      {
        "astId": 342,
        "contract": "contracts/SafelockFactory.sol:SafelockFactory",
        "label": "s_safelocks",
        "offset": 0,
        "slot": "3",
        "type": "t_array(t_contract(Safelock)324)dyn_storage"
      }
    ],
    "types": {
      "t_address": {
        "encoding": "inplace",
        "label": "address",
        "numberOfBytes": "20"
      },
      "t_array(t_contract(Safelock)324)dyn_storage": {
        "base": "t_contract(Safelock)324",
        "encoding": "dynamic_array",
        "label": "contract Safelock[]",
        "numberOfBytes": "32"
      },
      "t_contract(Safelock)324": {
        "encoding": "inplace",
        "label": "contract Safelock",
        "numberOfBytes": "20"
      },
      "t_mapping(t_address,t_uint256)": {
        "encoding": "mapping",
        "key": "t_address",
        "label": "mapping(address => uint256)",
        "numberOfBytes": "32",
        "value": "t_uint256"
      },
      "t_uint256": {
        "encoding": "inplace",
        "label": "uint256",
        "numberOfBytes": "32"
      }
    }
  }
}